{
  "contractName": "ZombieFeeding",
  "abi": [
    {
      "anonymous": false,
      "inputs": [
        {
          "indexed": false,
          "internalType": "uint256",
          "name": "zombieId",
          "type": "uint256"
        },
        {
          "indexed": false,
          "internalType": "string",
          "name": "name",
          "type": "string"
        },
        {
          "indexed": false,
          "internalType": "uint256",
          "name": "dna",
          "type": "uint256"
        }
      ],
      "name": "NewZombie",
      "type": "event"
    },
    {
      "anonymous": false,
      "inputs": [
        {
          "indexed": true,
          "internalType": "address",
          "name": "previousOwner",
          "type": "address"
        },
        {
          "indexed": true,
          "internalType": "address",
          "name": "newOwner",
          "type": "address"
        }
      ],
      "name": "OwnershipTransferred",
      "type": "event"
    },
    {
      "inputs": [
        {
          "internalType": "string",
          "name": "_name",
          "type": "string"
        }
      ],
      "name": "createRandomZombie",
      "outputs": [],
      "stateMutability": "nonpayable",
      "type": "function"
    },
    {
      "inputs": [],
      "name": "owner",
      "outputs": [
        {
          "internalType": "address",
          "name": "",
          "type": "address"
        }
      ],
      "stateMutability": "view",
      "type": "function"
    },
    {
      "inputs": [
        {
          "internalType": "address",
          "name": "",
          "type": "address"
        }
      ],
      "name": "ownerZombieCount",
      "outputs": [
        {
          "internalType": "uint256",
          "name": "",
          "type": "uint256"
        }
      ],
      "stateMutability": "view",
      "type": "function"
    },
    {
      "inputs": [],
      "name": "renounceOwnership",
      "outputs": [],
      "stateMutability": "nonpayable",
      "type": "function"
    },
    {
      "inputs": [
        {
          "internalType": "address",
          "name": "newOwner",
          "type": "address"
        }
      ],
      "name": "transferOwnership",
      "outputs": [],
      "stateMutability": "nonpayable",
      "type": "function"
    },
    {
      "inputs": [
        {
          "internalType": "uint256",
          "name": "",
          "type": "uint256"
        }
      ],
      "name": "zombieToOwner",
      "outputs": [
        {
          "internalType": "address",
          "name": "",
          "type": "address"
        }
      ],
      "stateMutability": "view",
      "type": "function"
    },
    {
      "inputs": [
        {
          "internalType": "uint256",
          "name": "",
          "type": "uint256"
        }
      ],
      "name": "zombies",
      "outputs": [
        {
          "internalType": "string",
          "name": "name",
          "type": "string"
        },
        {
          "internalType": "uint256",
          "name": "dna",
          "type": "uint256"
        },
        {
          "internalType": "uint32",
          "name": "level",
          "type": "uint32"
        },
        {
          "internalType": "uint32",
          "name": "readyTime",
          "type": "uint32"
        }
      ],
      "stateMutability": "view",
      "type": "function"
    },
    {
      "inputs": [
        {
          "internalType": "address",
          "name": "_address",
          "type": "address"
        }
      ],
      "name": "setKittyAddress",
      "outputs": [],
      "stateMutability": "nonpayable",
      "type": "function"
    },
    {
      "inputs": [
        {
          "internalType": "uint256",
          "name": "_zombieId",
          "type": "uint256"
        },
        {
          "internalType": "uint256",
          "name": "_targetDna",
          "type": "uint256"
        },
        {
          "internalType": "string",
          "name": "_species",
          "type": "string"
        }
      ],
      "name": "feedAndMultiply",
      "outputs": [],
      "stateMutability": "nonpayable",
      "type": "function"
    },
    {
      "inputs": [
        {
          "internalType": "uint256",
          "name": "_zombieId",
          "type": "uint256"
        },
        {
          "internalType": "uint256",
          "name": "_kittyId",
          "type": "uint256"
        }
      ],
      "name": "feedOnKitty",
      "outputs": [],
      "stateMutability": "nonpayable",
      "type": "function"
    }
  ],
  "bytecode": "0x60806040526010600155600154600a6200001a919062000290565b6002556040518060400160405280600881526020017f4d79537472696e67000000000000000000000000000000000000000000000000815250600390805190602001906200006a92919062000185565b506040518060400160405280600d81526020017f4d794f74686572537472696e670000000000000000000000000000000000000081525060049080519060200190620000b892919062000185565b50348015620000c657600080fd5b506000620000d96200017d60201b60201c565b9050806000806101000a81548173ffffffffffffffffffffffffffffffffffffffff021916908373ffffffffffffffffffffffffffffffffffffffff1602179055508073ffffffffffffffffffffffffffffffffffffffff16600073ffffffffffffffffffffffffffffffffffffffff167f8be0079c531659141344cd1fd0a4f28419497f9722a3daafe3b4186f6b6457e060405160405180910390a35062000478565b600033905090565b8280546200019390620003d7565b90600052602060002090601f016020900481019282620001b7576000855562000203565b82601f10620001d257805160ff191683800117855562000203565b8280016001018555821562000203579182015b8281111562000202578251825591602001919060010190620001e5565b5b50905062000212919062000216565b5090565b5b808211156200023157600081600090555060010162000217565b5090565b6000808291508390505b600185111562000287578086048111156200025f576200025e6200040d565b5b60018516156200026f5780820291505b80810290506200027f856200046b565b94506200023f565b94509492505050565b60006200029d82620003cd565b9150620002aa83620003cd565b9250620002d97fffffffffffffffffffffffffffffffffffffffffffffffffffffffffffffffff8484620002e1565b905092915050565b600082620002f35760019050620003c6565b81620003035760009050620003c6565b81600181146200031c576002811462000327576200035d565b6001915050620003c6565b60ff8411156200033c576200033b6200040d565b5b8360020a9150848211156200035657620003556200040d565b5b50620003c6565b5060208310610133831016604e8410600b8410161715620003975782820a9050838111156200039157620003906200040d565b5b620003c6565b620003a6848484600162000235565b92509050818404811115620003c057620003bf6200040d565b5b81810290505b9392505050565b6000819050919050565b60006002820490506001821680620003f057607f821691505b602082108114156200040757620004066200043c565b5b50919050565b7f4e487b7100000000000000000000000000000000000000000000000000000000600052601160045260246000fd5b7f4e487b7100000000000000000000000000000000000000000000000000000000600052602260045260246000fd5b60008160011c9050919050565b6117a080620004886000396000f3fe608060405234801561001057600080fd5b506004361061009e5760003560e01c8063715018a611610066578063715018a61461016e5780637bff0a01146101785780638da5cb5b14610194578063e7d33a78146101b2578063f2fde38b146101ce5761009e565b806301afd7e1146100a357806317a7f4cc146100d35780632052465e146100ef578063528b7b8f146101225780636b0bfc8014610152575b600080fd5b6100bd60048036038101906100b89190610e09565b6101ea565b6040516100ca9190611376565b60405180910390f35b6100ed60048036038101906100e89190610f77565b610202565b005b61010960048036038101906101049190610f4e565b61032f565b60405161011994939291906112aa565b60405180910390f35b61013c60048036038101906101379190610f4e565b610417565b604051610149919061128f565b60405180910390f35b61016c60048036038101906101679190610fb3565b61044a565b005b610176610626565b005b610192600480360381019061018d9190610f0d565b610760565b005b61019c6107fd565b6040516101a9919061128f565b60405180910390f35b6101cc60048036038101906101c79190610e09565b610826565b005b6101e860048036038101906101e39190610e09565b6108e6565b005b60076020528060005260406000206000915090505481565b6000600860009054906101000a900473ffffffffffffffffffffffffffffffffffffffff1673ffffffffffffffffffffffffffffffffffffffff1663e98b7f4d836040518263ffffffff1660e01b815260040161025f9190611376565b6101406040518083038186803b15801561027857600080fd5b505afa15801561028c573d6000803e3d6000fd5b505050506040513d601f19601f820116820180604052508101906102b09190610e32565b9091929394959697985090919293949596975090919293949596509091929394955090919293945090919293509091925090915090508091505061032a83826040518060400160405280600581526020017f6b6974747900000000000000000000000000000000000000000000000000000081525061044a565b505050565b6005818154811061033f57600080fd5b9060005260206000209060030201600091509050806000018054610362906115ac565b80601f016020809104026020016040519081016040528092919081815260200182805461038e906115ac565b80156103db5780601f106103b0576101008083540402835291602001916103db565b820191906000526020600020905b8154815290600101906020018083116103be57829003601f168201915b5050505050908060010154908060020160009054906101000a900463ffffffff16908060020160049054906101000a900463ffffffff16905084565b60066020528060005260406000206000915054906101000a900473ffffffffffffffffffffffffffffffffffffffff1681565b6006600084815260200190815260200160002060009054906101000a900473ffffffffffffffffffffffffffffffffffffffff1673ffffffffffffffffffffffffffffffffffffffff163373ffffffffffffffffffffffffffffffffffffffff16146104eb576040517f08c379a00000000000000000000000000000000000000000000000000000000081526004016104e290611356565b60405180910390fd5b600060058481548110610527577f4e487b7100000000000000000000000000000000000000000000000000000000600052603260045260246000fd5b90600052602060002090600302019050600254836105459190611627565b92506000600284836001015461055b9190611457565b61056591906114ad565b90506040516020016105769061127a565b604051602081830303815290604052805190602001208360405160200161059d9190611263565b6040516020818303038152906040528051906020012014156105e05760636064826105c89190611627565b826105d391906114de565b6105dd9190611457565b90505b61061f6040518060400160405280600681526020017f4e6f4e616d65000000000000000000000000000000000000000000000000000081525082610a8f565b5050505050565b61062e610c5d565b73ffffffffffffffffffffffffffffffffffffffff1661064c6107fd565b73ffffffffffffffffffffffffffffffffffffffff16146106a2576040517f08c379a000000000000000000000000000000000000000000000000000000000815260040161069990611336565b60405180910390fd5b600073ffffffffffffffffffffffffffffffffffffffff1660008054906101000a900473ffffffffffffffffffffffffffffffffffffffff1673ffffffffffffffffffffffffffffffffffffffff167f8be0079c531659141344cd1fd0a4f28419497f9722a3daafe3b4186f6b6457e060405160405180910390a360008060006101000a81548173ffffffffffffffffffffffffffffffffffffffff021916908373ffffffffffffffffffffffffffffffffffffffff160217905550565b6000600760003373ffffffffffffffffffffffffffffffffffffffff1673ffffffffffffffffffffffffffffffffffffffff16815260200190815260200160002054146107e2576040517f08c379a00000000000000000000000000000000000000000000000000000000081526004016107d990611316565b60405180910390fd5b60006107ed82610c65565b90506107f98282610a8f565b5050565b60008060009054906101000a900473ffffffffffffffffffffffffffffffffffffffff16905090565b61082e610c5d565b73ffffffffffffffffffffffffffffffffffffffff1661084c6107fd565b73ffffffffffffffffffffffffffffffffffffffff16146108a2576040517f08c379a000000000000000000000000000000000000000000000000000000000815260040161089990611336565b60405180910390fd5b80600860006101000a81548173ffffffffffffffffffffffffffffffffffffffff021916908373ffffffffffffffffffffffffffffffffffffffff16021790555050565b6108ee610c5d565b73ffffffffffffffffffffffffffffffffffffffff1661090c6107fd565b73ffffffffffffffffffffffffffffffffffffffff1614610962576040517f08c379a000000000000000000000000000000000000000000000000000000000815260040161095990611336565b60405180910390fd5b600073ffffffffffffffffffffffffffffffffffffffff168173ffffffffffffffffffffffffffffffffffffffff1614156109d2576040517f08c379a00000000000000000000000000000000000000000000000000000000081526004016109c9906112f6565b60405180910390fd5b8073ffffffffffffffffffffffffffffffffffffffff1660008054906101000a900473ffffffffffffffffffffffffffffffffffffffff1673ffffffffffffffffffffffffffffffffffffffff167f8be0079c531659141344cd1fd0a4f28419497f9722a3daafe3b4186f6b6457e060405160405180910390a3806000806101000a81548173ffffffffffffffffffffffffffffffffffffffff021916908373ffffffffffffffffffffffffffffffffffffffff16021790555050565b60056040518060800160405280848152602001838152602001600063ffffffff168152602001600063ffffffff1681525090806001815401808255809150506001900390600052602060002090600302016000909190919091506000820151816000019080519060200190610b05929190610caa565b506020820151816001015560408201518160020160006101000a81548163ffffffff021916908363ffffffff16021790555060608201518160020160046101000a81548163ffffffff021916908363ffffffff160217905550505060006001600580549050610b7491906114de565b9050336006600083815260200190815260200160002060006101000a81548173ffffffffffffffffffffffffffffffffffffffff021916908373ffffffffffffffffffffffffffffffffffffffff160217905550600760003373ffffffffffffffffffffffffffffffffffffffff1673ffffffffffffffffffffffffffffffffffffffff1681526020019081526020016000206000815480929190610c18906115de565b91905055507f88f026aacbbecc90c18411df4b1185fd8d9be2470f1962f192bf84a27d0704b7818484604051610c5093929190611391565b60405180910390a1505050565b600033905090565b60008082604051602001610c799190611263565b6040516020818303038152906040528051906020012060001c905060025481610ca29190611627565b915050919050565b828054610cb6906115ac565b90600052602060002090601f016020900481019282610cd85760008555610d1f565b82601f10610cf157805160ff1916838001178555610d1f565b82800160010185558215610d1f579182015b82811115610d1e578251825591602001919060010190610d03565b5b509050610d2c9190610d30565b5090565b5b80821115610d49576000816000905550600101610d31565b5090565b6000610d60610d5b84611400565b6113cf565b905082815260208101848484011115610d7857600080fd5b610d8384828561156a565b509392505050565b600081359050610d9a81611725565b92915050565b600081519050610daf8161173c565b92915050565b600082601f830112610dc657600080fd5b8135610dd6848260208601610d4d565b91505092915050565b600081359050610dee81611753565b92915050565b600081519050610e0381611753565b92915050565b600060208284031215610e1b57600080fd5b6000610e2984828501610d8b565b91505092915050565b6000806000806000806000806000806101408b8d031215610e5257600080fd5b6000610e608d828e01610da0565b9a50506020610e718d828e01610da0565b9950506040610e828d828e01610df4565b9850506060610e938d828e01610df4565b9750506080610ea48d828e01610df4565b96505060a0610eb58d828e01610df4565b95505060c0610ec68d828e01610df4565b94505060e0610ed78d828e01610df4565b935050610100610ee98d828e01610df4565b925050610120610efb8d828e01610df4565b9150509295989b9194979a5092959850565b600060208284031215610f1f57600080fd5b600082013567ffffffffffffffff811115610f3957600080fd5b610f4584828501610db5565b91505092915050565b600060208284031215610f6057600080fd5b6000610f6e84828501610ddf565b91505092915050565b60008060408385031215610f8a57600080fd5b6000610f9885828601610ddf565b9250506020610fa985828601610ddf565b9150509250929050565b600080600060608486031215610fc857600080fd5b6000610fd686828701610ddf565b9350506020610fe786828701610ddf565b925050604084013567ffffffffffffffff81111561100457600080fd5b61101086828701610db5565b9150509250925092565b61102381611512565b82525050565b600061103482611430565b61103e818561143b565b935061104e818560208601611579565b61105781611714565b840191505092915050565b600061106d82611430565b611077818561144c565b9350611087818560208601611579565b80840191505092915050565b60006110a060268361143b565b91507f4f776e61626c653a206e6577206f776e657220697320746865207a65726f206160008301527f64647265737300000000000000000000000000000000000000000000000000006020830152604082019050919050565b600061110660268361143b565b91507f5468697320757365722068617320616c7265616479206372656174656420612060008301527f5a6f6d62696500000000000000000000000000000000000000000000000000006020830152604082019050919050565b600061116c60058361144c565b91507f6b697474790000000000000000000000000000000000000000000000000000006000830152600582019050919050565b60006111ac60208361143b565b91507f4f776e61626c653a2063616c6c6572206973206e6f7420746865206f776e65726000830152602082019050919050565b60006111ec60298361143b565b91507f596f752063616e6e6f7420666565642061207a6f6d626965207468617420697360008301527f6e277420796f75727300000000000000000000000000000000000000000000006020830152604082019050919050565b61124e81611550565b82525050565b61125d8161155a565b82525050565b600061126f8284611062565b915081905092915050565b60006112858261115f565b9150819050919050565b60006020820190506112a4600083018461101a565b92915050565b600060808201905081810360008301526112c48187611029565b90506112d36020830186611245565b6112e06040830185611254565b6112ed6060830184611254565b95945050505050565b6000602082019050818103600083015261130f81611093565b9050919050565b6000602082019050818103600083015261132f816110f9565b9050919050565b6000602082019050818103600083015261134f8161119f565b9050919050565b6000602082019050818103600083015261136f816111df565b9050919050565b600060208201905061138b6000830184611245565b92915050565b60006060820190506113a66000830186611245565b81810360208301526113b88185611029565b90506113c76040830184611245565b949350505050565b6000604051905081810181811067ffffffffffffffff821117156113f6576113f56116e5565b5b8060405250919050565b600067ffffffffffffffff82111561141b5761141a6116e5565b5b601f19601f8301169050602081019050919050565b600081519050919050565b600082825260208201905092915050565b600081905092915050565b600061146282611550565b915061146d83611550565b9250827fffffffffffffffffffffffffffffffffffffffffffffffffffffffffffffffff038211156114a2576114a1611658565b5b828201905092915050565b60006114b882611550565b91506114c383611550565b9250826114d3576114d2611687565b5b828204905092915050565b60006114e982611550565b91506114f483611550565b92508282101561150757611506611658565b5b828203905092915050565b600061151d82611530565b9050919050565b60008115159050919050565b600073ffffffffffffffffffffffffffffffffffffffff82169050919050565b6000819050919050565b600063ffffffff82169050919050565b82818337600083830152505050565b60005b8381101561159757808201518184015260208101905061157c565b838111156115a6576000848401525b50505050565b600060028204905060018216806115c457607f821691505b602082108114156115d8576115d76116b6565b5b50919050565b60006115e982611550565b91507fffffffffffffffffffffffffffffffffffffffffffffffffffffffffffffffff82141561161c5761161b611658565b5b600182019050919050565b600061163282611550565b915061163d83611550565b92508261164d5761164c611687565b5b828206905092915050565b7f4e487b7100000000000000000000000000000000000000000000000000000000600052601160045260246000fd5b7f4e487b7100000000000000000000000000000000000000000000000000000000600052601260045260246000fd5b7f4e487b7100000000000000000000000000000000000000000000000000000000600052602260045260246000fd5b7f4e487b7100000000000000000000000000000000000000000000000000000000600052604160045260246000fd5b6000601f19601f8301169050919050565b61172e81611512565b811461173957600080fd5b50565b61174581611524565b811461175057600080fd5b50565b61175c81611550565b811461176757600080fd5b5056fea2646970667358221220e58f294587e9f001e634bf4529911650de678b81df71f59226cd56063c4c0bc864736f6c63430008000033",
  "immutableReferences": {},
  "source": "// SPDX-License-Identifier: MIT\npragma solidity >=0.8.0 <0.9.0;\n\nimport \"./ZombieFactory.sol\";\n\nabstract contract KittyInterface {\n\tfunction getKitty(uint256 _id)\n\t\texternal\n\t\tview\n\t\tvirtual\n\t\treturns (\n\t\t\tbool isGestating,\n\t\t\tbool isReady,\n\t\t\tuint256 cooldownIndex,\n\t\t\tuint256 nextActionAt,\n\t\t\tuint256 siringWithId,\n\t\t\tuint256 birthTime,\n\t\t\tuint256 matronId,\n\t\t\tuint256 sireId,\n\t\t\tuint256 generation,\n\t\t\tuint256 genes\n\t\t);\n}\n\n/**\n * @dev Holds all of the Zombie Feeding logic\n */\ncontract ZombieFeeding is ZombieFactory {\n\t// address ckAddress = 0x06012c8cf97BEaD5deAe237070F9587f8E7A266d;\n\t// KittyInterface kittyContract = KittyInterface(ckAddress);\n\tKittyInterface kittyContract;\n\n\tfunction setKittyAddress(address _address) external onlyOwner {\n\t\tkittyContract = KittyInterface(_address);\n\t}\n\n\tfunction feedAndMultiply(\n\t\tuint256 _zombieId,\n\t\tuint256 _targetDna,\n\t\tstring memory _species\n\t) public {\n\t\trequire(\n\t\t\tmsg.sender == zombieToOwner[_zombieId],\n\t\t\t\"You cannot feed a zombie that isn't yours\"\n\t\t);\n\n\t\tZombie storage myZombie = zombies[_zombieId];\n\n\t\t_targetDna = _targetDna % dnaModulus;\n\n\t\tuint256 newDna = (myZombie.dna + _targetDna) / 2;\n\t\tif (\n\t\t\tkeccak256(abi.encodePacked(_species)) ==\n\t\t\tkeccak256(abi.encodePacked(\"kitty\"))\n\t\t) {\n\t\t\tnewDna = newDna - (newDna % 100) + 99;\n\t\t}\n\n\t\t_createZombie(\"NoName\", newDna);\n\t}\n\n\tfunction feedOnKitty(uint256 _zombieId, uint256 _kittyId) public {\n\t\tuint256 kittyDna;\n\t\t(, , , , , , , , , kittyDna) = kittyContract.getKitty(_kittyId);\n\t\tfeedAndMultiply(_zombieId, kittyDna, \"kitty\");\n\t}\n}\n",
  "sourcePath": "/Users/tnguyen/freelance/2011-EPITA/classes/class02/cryptozombies-spring1/contracts/ZombieFeeding.sol",
  "compiler": {
    "name": "solc",
    "version": "0.8.0+commit.c7dfd78e.Emscripten.clang"
  },
  "schemaVersion": "3.4.0",
  "updatedAt": "2021-05-03T14:16:00.548Z",
  "devdoc": {
    "details": "Holds all of the Zombie Feeding logic",
    "kind": "dev",
    "methods": {
      "createRandomZombie(string)": {
        "details": "A public function that will create a zombie with random dna from a given name",
        "params": {
          "_name": "The name of the zombie to be created"
        }
      },
      "owner()": {
        "details": "Returns the address of the current owner."
      },
      "renounceOwnership()": {
        "details": "Leaves the contract without owner. It will not be possible to call `onlyOwner` functions anymore. Can only be called by the current owner. NOTE: Renouncing ownership will leave the contract without an owner, thereby removing any functionality that is only available to the owner."
      },
      "transferOwnership(address)": {
        "details": "Transfers ownership of the contract to a new account (`newOwner`). Can only be called by the current owner."
      }
    },
    "version": 1
  },
  "userdoc": {
    "kind": "user",
    "methods": {},
    "version": 1
  }
}