{
  "contractName": "ZombieFeeding",
  "abi": [
    {
      "anonymous": false,
      "inputs": [
        {
          "indexed": false,
          "internalType": "uint256",
          "name": "zombieId",
          "type": "uint256"
        },
        {
          "indexed": false,
          "internalType": "string",
          "name": "name",
          "type": "string"
        },
        {
          "indexed": false,
          "internalType": "uint256",
          "name": "dna",
          "type": "uint256"
        }
      ],
      "name": "NewZombie",
      "type": "event"
    },
    {
      "inputs": [
        {
          "internalType": "string",
          "name": "_name",
          "type": "string"
        }
      ],
      "name": "createRandomZombie",
      "outputs": [],
      "stateMutability": "nonpayable",
      "type": "function"
    },
    {
      "inputs": [
        {
          "internalType": "address",
          "name": "",
          "type": "address"
        }
      ],
      "name": "ownerZombieCount",
      "outputs": [
        {
          "internalType": "uint256",
          "name": "",
          "type": "uint256"
        }
      ],
      "stateMutability": "view",
      "type": "function"
    },
    {
      "inputs": [
        {
          "internalType": "uint256",
          "name": "",
          "type": "uint256"
        }
      ],
      "name": "zombieToOwner",
      "outputs": [
        {
          "internalType": "address",
          "name": "",
          "type": "address"
        }
      ],
      "stateMutability": "view",
      "type": "function"
    },
    {
      "inputs": [
        {
          "internalType": "uint256",
          "name": "",
          "type": "uint256"
        }
      ],
      "name": "zombies",
      "outputs": [
        {
          "internalType": "string",
          "name": "name",
          "type": "string"
        },
        {
          "internalType": "uint256",
          "name": "dna",
          "type": "uint256"
        }
      ],
      "stateMutability": "view",
      "type": "function"
    }
  ],
  "bytecode": "0x60806040526010600055600054600a6200001a9190620001d8565b6001556040518060400160405280600881526020017f4d79537472696e67000000000000000000000000000000000000000000000000815250600290805190602001906200006a929190620000cd565b506040518060400160405280600d81526020017f4d794f74686572537472696e670000000000000000000000000000000000000081525060039080519060200190620000b8929190620000cd565b50348015620000c657600080fd5b50620003c0565b828054620000db906200031f565b90600052602060002090601f016020900481019282620000ff57600085556200014b565b82601f106200011a57805160ff19168380011785556200014b565b828001600101855582156200014b579182015b828111156200014a5782518255916020019190600101906200012d565b5b5090506200015a91906200015e565b5090565b5b80821115620001795760008160009055506001016200015f565b5090565b6000808291508390505b6001851115620001cf57808604811115620001a757620001a662000355565b5b6001851615620001b75780820291505b8081029050620001c785620003b3565b945062000187565b94509492505050565b6000620001e58262000315565b9150620001f28362000315565b9250620002217fffffffffffffffffffffffffffffffffffffffffffffffffffffffffffffffff848462000229565b905092915050565b6000826200023b57600190506200030e565b816200024b57600090506200030e565b81600181146200026457600281146200026f57620002a5565b60019150506200030e565b60ff84111562000284576200028362000355565b5b8360020a9150848211156200029e576200029d62000355565b5b506200030e565b5060208310610133831016604e8410600b8410161715620002df5782820a905083811115620002d957620002d862000355565b5b6200030e565b620002ee84848460016200017d565b9250905081840481111562000308576200030762000355565b5b81810290505b9392505050565b6000819050919050565b600060028204905060018216806200033857607f821691505b602082108114156200034f576200034e62000384565b5b50919050565b7f4e487b7100000000000000000000000000000000000000000000000000000000600052601160045260246000fd5b7f4e487b7100000000000000000000000000000000000000000000000000000000600052602260045260246000fd5b60008160011c9050919050565b610af580620003d06000396000f3fe608060405234801561001057600080fd5b506004361061004c5760003560e01c806301afd7e1146100515780632052465e14610081578063528b7b8f146100b25780637bff0a01146100e2575b600080fd5b61006b60048036038101906100669190610582565b6100fe565b6040516100789190610785565b60405180910390f35b61009b600480360381019061009691906105ec565b610116565b6040516100a9929190610735565b60405180910390f35b6100cc60048036038101906100c791906105ec565b6101d2565b6040516100d9919061071a565b60405180910390f35b6100fc60048036038101906100f791906105ab565b610205565b005b60066020528060005260406000206000915090505481565b6004818154811061012657600080fd5b906000526020600020906002020160009150905080600001805461014990610918565b80601f016020809104026020016040519081016040528092919081815260200182805461017590610918565b80156101c25780601f10610197576101008083540402835291602001916101c2565b820191906000526020600020905b8154815290600101906020018083116101a557829003601f168201915b5050505050908060010154905082565b60056020528060005260406000206000915054906101000a900473ffffffffffffffffffffffffffffffffffffffff1681565b6000600660003373ffffffffffffffffffffffffffffffffffffffff1673ffffffffffffffffffffffffffffffffffffffff1681526020019081526020016000205414610287576040517f08c379a000000000000000000000000000000000000000000000000000000000815260040161027e90610765565b60405180910390fd5b6000610292826102a2565b905061029e82826102e7565b5050565b600080826040516020016102b69190610703565b6040516020818303038152906040528051906020012060001c9050600154816102df9190610993565b915050919050565b60046040518060400160405280848152602001838152509080600181540180825580915050600190039060005260206000209060020201600090919091909150600082015181600001908051906020019061034392919061044d565b50602082015181600101555050600060016004805490506103649190610866565b9050336005600083815260200190815260200160002060006101000a81548173ffffffffffffffffffffffffffffffffffffffff021916908373ffffffffffffffffffffffffffffffffffffffff160217905550600660003373ffffffffffffffffffffffffffffffffffffffff1673ffffffffffffffffffffffffffffffffffffffff16815260200190815260200160002060008154809291906104089061094a565b91905055507f88f026aacbbecc90c18411df4b1185fd8d9be2470f1962f192bf84a27d0704b7818484604051610440939291906107a0565b60405180910390a1505050565b82805461045990610918565b90600052602060002090601f01602090048101928261047b57600085556104c2565b82601f1061049457805160ff19168380011785556104c2565b828001600101855582156104c2579182015b828111156104c15782518255916020019190600101906104a6565b5b5090506104cf91906104d3565b5090565b5b808211156104ec5760008160009055506001016104d4565b5090565b60006105036104fe8461080f565b6107de565b90508281526020810184848401111561051b57600080fd5b6105268482856108d6565b509392505050565b60008135905061053d81610a91565b92915050565b600082601f83011261055457600080fd5b81356105648482602086016104f0565b91505092915050565b60008135905061057c81610aa8565b92915050565b60006020828403121561059457600080fd5b60006105a28482850161052e565b91505092915050565b6000602082840312156105bd57600080fd5b600082013567ffffffffffffffff8111156105d757600080fd5b6105e384828501610543565b91505092915050565b6000602082840312156105fe57600080fd5b600061060c8482850161056d565b91505092915050565b61061e8161089a565b82525050565b600061062f8261083f565b610639818561084a565b93506106498185602086016108e5565b61065281610a80565b840191505092915050565b60006106688261083f565b610672818561085b565b93506106828185602086016108e5565b80840191505092915050565b600061069b60268361084a565b91507f5468697320757365722068617320616c7265616479206372656174656420612060008301527f5a6f6d62696500000000000000000000000000000000000000000000000000006020830152604082019050919050565b6106fd816108cc565b82525050565b600061070f828461065d565b915081905092915050565b600060208201905061072f6000830184610615565b92915050565b6000604082019050818103600083015261074f8185610624565b905061075e60208301846106f4565b9392505050565b6000602082019050818103600083015261077e8161068e565b9050919050565b600060208201905061079a60008301846106f4565b92915050565b60006060820190506107b560008301866106f4565b81810360208301526107c78185610624565b90506107d660408301846106f4565b949350505050565b6000604051905081810181811067ffffffffffffffff8211171561080557610804610a51565b5b8060405250919050565b600067ffffffffffffffff82111561082a57610829610a51565b5b601f19601f8301169050602081019050919050565b600081519050919050565b600082825260208201905092915050565b600081905092915050565b6000610871826108cc565b915061087c836108cc565b92508282101561088f5761088e6109c4565b5b828203905092915050565b60006108a5826108ac565b9050919050565b600073ffffffffffffffffffffffffffffffffffffffff82169050919050565b6000819050919050565b82818337600083830152505050565b60005b838110156109035780820151818401526020810190506108e8565b83811115610912576000848401525b50505050565b6000600282049050600182168061093057607f821691505b6020821081141561094457610943610a22565b5b50919050565b6000610955826108cc565b91507fffffffffffffffffffffffffffffffffffffffffffffffffffffffffffffffff821415610988576109876109c4565b5b600182019050919050565b600061099e826108cc565b91506109a9836108cc565b9250826109b9576109b86109f3565b5b828206905092915050565b7f4e487b7100000000000000000000000000000000000000000000000000000000600052601160045260246000fd5b7f4e487b7100000000000000000000000000000000000000000000000000000000600052601260045260246000fd5b7f4e487b7100000000000000000000000000000000000000000000000000000000600052602260045260246000fd5b7f4e487b7100000000000000000000000000000000000000000000000000000000600052604160045260246000fd5b6000601f19601f8301169050919050565b610a9a8161089a565b8114610aa557600080fd5b50565b610ab1816108cc565b8114610abc57600080fd5b5056fea2646970667358221220d1d9bd09a5cb04dcc84da0e3e2b59ada3fe0a42f568774c67a6ef410efa74d3e64736f6c63430008000033",
  "immutableReferences": {},
  "source": "// SPDX-License-Identifier: MIT\npragma solidity >=0.8.0 <0.9.0;\n\nimport \"./ZombieFactory.sol\";\n\n/**\n * @dev Holds all of the Zombie Feeding logic\n */\ncontract ZombieFeeding is ZombieFactory {\n\n}\n",
  "sourcePath": "/Users/tnguyen/freelance/2011-EPITA/classes/class02/cryptozombies-spring1/contracts/ZombieFeeding.sol",
  "compiler": {
    "name": "solc",
    "version": "0.8.0+commit.c7dfd78e.Emscripten.clang"
  },
  "schemaVersion": "3.4.0",
  "updatedAt": "2021-04-28T10:39:17.816Z",
  "devdoc": {
    "details": "Holds all of the Zombie Feeding logic",
    "kind": "dev",
    "methods": {
      "createRandomZombie(string)": {
        "details": "A public function that will create a zombie with random dna from a given name",
        "params": {
          "_name": "The name of the zombie to be created"
        }
      }
    },
    "version": 1
  },
  "userdoc": {
    "kind": "user",
    "methods": {},
    "version": 1
  }
}