{
  "contractName": "ZombieFactory",
  "abi": [
    {
      "anonymous": false,
      "inputs": [
        {
          "indexed": false,
          "internalType": "uint256",
          "name": "zombieId",
          "type": "uint256"
        },
        {
          "indexed": false,
          "internalType": "string",
          "name": "name",
          "type": "string"
        },
        {
          "indexed": false,
          "internalType": "uint256",
          "name": "dna",
          "type": "uint256"
        }
      ],
      "name": "NewZombie",
      "type": "event"
    },
    {
      "anonymous": false,
      "inputs": [
        {
          "indexed": true,
          "internalType": "address",
          "name": "previousOwner",
          "type": "address"
        },
        {
          "indexed": true,
          "internalType": "address",
          "name": "newOwner",
          "type": "address"
        }
      ],
      "name": "OwnershipTransferred",
      "type": "event"
    },
    {
      "inputs": [],
      "name": "owner",
      "outputs": [
        {
          "internalType": "address",
          "name": "",
          "type": "address"
        }
      ],
      "stateMutability": "view",
      "type": "function",
      "constant": true
    },
    {
      "inputs": [
        {
          "internalType": "address",
          "name": "",
          "type": "address"
        }
      ],
      "name": "ownerZombieCount",
      "outputs": [
        {
          "internalType": "uint256",
          "name": "",
          "type": "uint256"
        }
      ],
      "stateMutability": "view",
      "type": "function",
      "constant": true
    },
    {
      "inputs": [],
      "name": "renounceOwnership",
      "outputs": [],
      "stateMutability": "nonpayable",
      "type": "function"
    },
    {
      "inputs": [
        {
          "internalType": "address",
          "name": "newOwner",
          "type": "address"
        }
      ],
      "name": "transferOwnership",
      "outputs": [],
      "stateMutability": "nonpayable",
      "type": "function"
    },
    {
      "inputs": [
        {
          "internalType": "uint256",
          "name": "",
          "type": "uint256"
        }
      ],
      "name": "zombieToOwner",
      "outputs": [
        {
          "internalType": "address",
          "name": "",
          "type": "address"
        }
      ],
      "stateMutability": "view",
      "type": "function",
      "constant": true
    },
    {
      "inputs": [
        {
          "internalType": "uint256",
          "name": "",
          "type": "uint256"
        }
      ],
      "name": "zombies",
      "outputs": [
        {
          "internalType": "string",
          "name": "name",
          "type": "string"
        },
        {
          "internalType": "uint256",
          "name": "dna",
          "type": "uint256"
        },
        {
          "internalType": "uint32",
          "name": "level",
          "type": "uint32"
        },
        {
          "internalType": "uint32",
          "name": "readyTime",
          "type": "uint32"
        }
      ],
      "stateMutability": "view",
      "type": "function",
      "constant": true
    },
    {
      "inputs": [
        {
          "internalType": "string",
          "name": "_name",
          "type": "string"
        }
      ],
      "name": "createRandomZombie",
      "outputs": [],
      "stateMutability": "nonpayable",
      "type": "function"
    }
  ],
  "bytecode": "0x60806040526010600155600154600a6200001a919062000290565b6002556040518060400160405280600881526020017f4d79537472696e67000000000000000000000000000000000000000000000000815250600390805190602001906200006a92919062000185565b506040518060400160405280600d81526020017f4d794f74686572537472696e670000000000000000000000000000000000000081525060049080519060200190620000b892919062000185565b50348015620000c657600080fd5b506000620000d96200017d60201b60201c565b9050806000806101000a81548173ffffffffffffffffffffffffffffffffffffffff021916908373ffffffffffffffffffffffffffffffffffffffff1602179055508073ffffffffffffffffffffffffffffffffffffffff16600073ffffffffffffffffffffffffffffffffffffffff167f8be0079c531659141344cd1fd0a4f28419497f9722a3daafe3b4186f6b6457e060405160405180910390a35062000478565b600033905090565b8280546200019390620003d7565b90600052602060002090601f016020900481019282620001b7576000855562000203565b82601f10620001d257805160ff191683800117855562000203565b8280016001018555821562000203579182015b8281111562000202578251825591602001919060010190620001e5565b5b50905062000212919062000216565b5090565b5b808211156200023157600081600090555060010162000217565b5090565b6000808291508390505b600185111562000287578086048111156200025f576200025e6200040d565b5b60018516156200026f5780820291505b80810290506200027f856200046b565b94506200023f565b94509492505050565b60006200029d82620003cd565b9150620002aa83620003cd565b9250620002d97fffffffffffffffffffffffffffffffffffffffffffffffffffffffffffffffff8484620002e1565b905092915050565b600082620002f35760019050620003c6565b81620003035760009050620003c6565b81600181146200031c576002811462000327576200035d565b6001915050620003c6565b60ff8411156200033c576200033b6200040d565b5b8360020a9150848211156200035657620003556200040d565b5b50620003c6565b5060208310610133831016604e8410600b8410161715620003975782820a9050838111156200039157620003906200040d565b5b620003c6565b620003a6848484600162000235565b92509050818404811115620003c057620003bf6200040d565b5b81810290505b9392505050565b6000819050919050565b60006002820490506001821680620003f057607f821691505b602082108114156200040757620004066200043c565b5b50919050565b7f4e487b7100000000000000000000000000000000000000000000000000000000600052601160045260246000fd5b7f4e487b7100000000000000000000000000000000000000000000000000000000600052602260045260246000fd5b60008160011c9050919050565b61103580620004886000396000f3fe608060405234801561001057600080fd5b506004361061007d5760003560e01c8063715018a61161005b578063715018a6146101155780637bff0a011461011f5780638da5cb5b1461013b578063f2fde38b146101595761007d565b806301afd7e1146100825780632052465e146100b2578063528b7b8f146100e5575b600080fd5b61009c600480360381019061009791906109a1565b610175565b6040516100a99190610cb5565b60405180910390f35b6100cc60048036038101906100c79190610a0b565b61018d565b6040516100dc9493929190610c09565b60405180910390f35b6100ff60048036038101906100fa9190610a0b565b610275565b60405161010c9190610bee565b60405180910390f35b61011d6102a8565b005b610139600480360381019061013491906109ca565b6103e2565b005b61014361047f565b6040516101509190610bee565b60405180910390f35b610173600480360381019061016e91906109a1565b6104a8565b005b60076020528060005260406000206000915090505481565b6005818154811061019d57600080fd5b90600052602060002090600302016000915090508060000180546101c090610e58565b80601f01602080910402602001604051908101604052809291908181526020018280546101ec90610e58565b80156102395780601f1061020e57610100808354040283529160200191610239565b820191906000526020600020905b81548152906001019060200180831161021c57829003601f168201915b5050505050908060010154908060020160009054906101000a900463ffffffff16908060020160049054906101000a900463ffffffff16905084565b60066020528060005260406000206000915054906101000a900473ffffffffffffffffffffffffffffffffffffffff1681565b6102b0610651565b73ffffffffffffffffffffffffffffffffffffffff166102ce61047f565b73ffffffffffffffffffffffffffffffffffffffff1614610324576040517f08c379a000000000000000000000000000000000000000000000000000000000815260040161031b90610c95565b60405180910390fd5b600073ffffffffffffffffffffffffffffffffffffffff1660008054906101000a900473ffffffffffffffffffffffffffffffffffffffff1673ffffffffffffffffffffffffffffffffffffffff167f8be0079c531659141344cd1fd0a4f28419497f9722a3daafe3b4186f6b6457e060405160405180910390a360008060006101000a81548173ffffffffffffffffffffffffffffffffffffffff021916908373ffffffffffffffffffffffffffffffffffffffff160217905550565b6000600760003373ffffffffffffffffffffffffffffffffffffffff1673ffffffffffffffffffffffffffffffffffffffff1681526020019081526020016000205414610464576040517f08c379a000000000000000000000000000000000000000000000000000000000815260040161045b90610c75565b60405180910390fd5b600061046f82610659565b905061047b828261069e565b5050565b60008060009054906101000a900473ffffffffffffffffffffffffffffffffffffffff16905090565b6104b0610651565b73ffffffffffffffffffffffffffffffffffffffff166104ce61047f565b73ffffffffffffffffffffffffffffffffffffffff1614610524576040517f08c379a000000000000000000000000000000000000000000000000000000000815260040161051b90610c95565b60405180910390fd5b600073ffffffffffffffffffffffffffffffffffffffff168173ffffffffffffffffffffffffffffffffffffffff161415610594576040517f08c379a000000000000000000000000000000000000000000000000000000000815260040161058b90610c55565b60405180910390fd5b8073ffffffffffffffffffffffffffffffffffffffff1660008054906101000a900473ffffffffffffffffffffffffffffffffffffffff1673ffffffffffffffffffffffffffffffffffffffff167f8be0079c531659141344cd1fd0a4f28419497f9722a3daafe3b4186f6b6457e060405160405180910390a3806000806101000a81548173ffffffffffffffffffffffffffffffffffffffff021916908373ffffffffffffffffffffffffffffffffffffffff16021790555050565b600033905090565b6000808260405160200161066d9190610bd7565b6040516020818303038152906040528051906020012060001c9050600254816106969190610ed3565b915050919050565b60056040518060800160405280848152602001838152602001600063ffffffff168152602001600063ffffffff168152509080600181540180825580915050600190039060005260206000209060030201600090919091909150600082015181600001908051906020019061071492919061086c565b506020820151816001015560408201518160020160006101000a81548163ffffffff021916908363ffffffff16021790555060608201518160020160046101000a81548163ffffffff021916908363ffffffff1602179055505050600060016005805490506107839190610d96565b9050336006600083815260200190815260200160002060006101000a81548173ffffffffffffffffffffffffffffffffffffffff021916908373ffffffffffffffffffffffffffffffffffffffff160217905550600760003373ffffffffffffffffffffffffffffffffffffffff1673ffffffffffffffffffffffffffffffffffffffff168152602001908152602001600020600081548092919061082790610e8a565b91905055507f88f026aacbbecc90c18411df4b1185fd8d9be2470f1962f192bf84a27d0704b781848460405161085f93929190610cd0565b60405180910390a1505050565b82805461087890610e58565b90600052602060002090601f01602090048101928261089a57600085556108e1565b82601f106108b357805160ff19168380011785556108e1565b828001600101855582156108e1579182015b828111156108e05782518255916020019190600101906108c5565b5b5090506108ee91906108f2565b5090565b5b8082111561090b5760008160009055506001016108f3565b5090565b600061092261091d84610d3f565b610d0e565b90508281526020810184848401111561093a57600080fd5b610945848285610e16565b509392505050565b60008135905061095c81610fd1565b92915050565b600082601f83011261097357600080fd5b813561098384826020860161090f565b91505092915050565b60008135905061099b81610fe8565b92915050565b6000602082840312156109b357600080fd5b60006109c18482850161094d565b91505092915050565b6000602082840312156109dc57600080fd5b600082013567ffffffffffffffff8111156109f657600080fd5b610a0284828501610962565b91505092915050565b600060208284031215610a1d57600080fd5b6000610a2b8482850161098c565b91505092915050565b610a3d81610dca565b82525050565b6000610a4e82610d6f565b610a588185610d7a565b9350610a68818560208601610e25565b610a7181610fc0565b840191505092915050565b6000610a8782610d6f565b610a918185610d8b565b9350610aa1818560208601610e25565b80840191505092915050565b6000610aba602683610d7a565b91507f4f776e61626c653a206e6577206f776e657220697320746865207a65726f206160008301527f64647265737300000000000000000000000000000000000000000000000000006020830152604082019050919050565b6000610b20602683610d7a565b91507f5468697320757365722068617320616c7265616479206372656174656420612060008301527f5a6f6d62696500000000000000000000000000000000000000000000000000006020830152604082019050919050565b6000610b86602083610d7a565b91507f4f776e61626c653a2063616c6c6572206973206e6f7420746865206f776e65726000830152602082019050919050565b610bc281610dfc565b82525050565b610bd181610e06565b82525050565b6000610be38284610a7c565b915081905092915050565b6000602082019050610c036000830184610a34565b92915050565b60006080820190508181036000830152610c238187610a43565b9050610c326020830186610bb9565b610c3f6040830185610bc8565b610c4c6060830184610bc8565b95945050505050565b60006020820190508181036000830152610c6e81610aad565b9050919050565b60006020820190508181036000830152610c8e81610b13565b9050919050565b60006020820190508181036000830152610cae81610b79565b9050919050565b6000602082019050610cca6000830184610bb9565b92915050565b6000606082019050610ce56000830186610bb9565b8181036020830152610cf78185610a43565b9050610d066040830184610bb9565b949350505050565b6000604051905081810181811067ffffffffffffffff82111715610d3557610d34610f91565b5b8060405250919050565b600067ffffffffffffffff821115610d5a57610d59610f91565b5b601f19601f8301169050602081019050919050565b600081519050919050565b600082825260208201905092915050565b600081905092915050565b6000610da182610dfc565b9150610dac83610dfc565b925082821015610dbf57610dbe610f04565b5b828203905092915050565b6000610dd582610ddc565b9050919050565b600073ffffffffffffffffffffffffffffffffffffffff82169050919050565b6000819050919050565b600063ffffffff82169050919050565b82818337600083830152505050565b60005b83811015610e43578082015181840152602081019050610e28565b83811115610e52576000848401525b50505050565b60006002820490506001821680610e7057607f821691505b60208210811415610e8457610e83610f62565b5b50919050565b6000610e9582610dfc565b91507fffffffffffffffffffffffffffffffffffffffffffffffffffffffffffffffff821415610ec857610ec7610f04565b5b600182019050919050565b6000610ede82610dfc565b9150610ee983610dfc565b925082610ef957610ef8610f33565b5b828206905092915050565b7f4e487b7100000000000000000000000000000000000000000000000000000000600052601160045260246000fd5b7f4e487b7100000000000000000000000000000000000000000000000000000000600052601260045260246000fd5b7f4e487b7100000000000000000000000000000000000000000000000000000000600052602260045260246000fd5b7f4e487b7100000000000000000000000000000000000000000000000000000000600052604160045260246000fd5b6000601f19601f8301169050919050565b610fda81610dca565b8114610fe557600080fd5b50565b610ff181610dfc565b8114610ffc57600080fd5b5056fea26469706673582212207df09bcacf225e11914d241dd35b96dd3febb125c861445b4fed43288e9b24b564736f6c63430008000033",
  "immutableReferences": {},
  "source": "// SPDX-License-Identifier: MIT\npragma solidity >=0.8.0 <0.9.0;\n\nimport \"@openzeppelin/contracts/access/Ownable.sol\";\n\n/**\n * @title ZombieFactory\n * @author Thanh-Quy Nguyen\n * @dev A smart contract where zombies are created\n */\ncontract ZombieFactory is Ownable {\n\tevent NewZombie(uint256 zombieId, string name, uint256 dna);\n\n\tuint256 dnaDigits = 16;\n\tuint256 dnaModulus = 10**dnaDigits;\n\n\tstring example = \"MyString\";\n\tstring example2 = \"MyOtherString\";\n\n\tstruct Zombie {\n\t\tstring name;\n\t\tuint256 dna;\n\t\tuint32 level;\n\t\tuint32 readyTime;\n\t}\n\n\tZombie[] public zombies;\n\n\tmapping(uint256 => address) public zombieToOwner;\n\tmapping(address => uint256) public ownerZombieCount;\n\n\t/**\n\t * @dev A function that creates a new zombie and adds it to the zombies array\n\t * @param _name The name of the new zombie to be added\n\t * @param _dna The dna of the new zombie to be added\n\t */\n\tfunction _createZombie(string memory _name, uint256 _dna) internal {\n\t\tzombies.push(Zombie(_name, _dna, 0, 0));\n\t\tuint256 id = zombies.length - 1;\n\t\tzombieToOwner[id] = msg.sender;\n\t\townerZombieCount[msg.sender]++;\n\n\t\temit NewZombie(id, _name, _dna);\n\t}\n\n\t/**\n\t * @dev A function that returns a random number modulus dnaModulus\n\t * @param _str A string from which the random number is generated\n\t */\n\tfunction _generateRandomDna(string memory _str)\n\t\tprivate\n\t\tview\n\t\treturns (uint256)\n\t{\n\t\tuint256 rand = uint256(keccak256(abi.encodePacked(_str)));\n\n\t\treturn rand % dnaModulus;\n\t}\n\n\t/**\n\t * @dev A public function that will create a zombie with random dna from a given name\n\t * @param _name The name of the zombie to be created\n\t */\n\tfunction createRandomZombie(string memory _name) public {\n\t\trequire(\n\t\t\townerZombieCount[msg.sender] == 0,\n\t\t\t\"This user has already created a Zombie\"\n\t\t);\n\t\tuint256 randDna = _generateRandomDna(_name);\n\n\t\t_createZombie(_name, randDna);\n\t}\n}\n",
  "sourcePath": "/Users/tnguyen/freelance/2011-EPITA/classes/class02/cryptozombies-spring1/contracts/ZombieFactory.sol",
  "compiler": {
    "name": "solc",
    "version": "0.8.0+commit.c7dfd78e.Emscripten.clang"
  },
  "schemaVersion": "3.4.0",
  "updatedAt": "2021-05-03T14:19:22.589Z",
  "networkType": "ethereum",
  "devdoc": {
    "author": "Thanh-Quy Nguyen",
    "details": "A smart contract where zombies are created",
    "kind": "dev",
    "methods": {
      "createRandomZombie(string)": {
        "details": "A public function that will create a zombie with random dna from a given name",
        "params": {
          "_name": "The name of the zombie to be created"
        }
      },
      "owner()": {
        "details": "Returns the address of the current owner."
      },
      "renounceOwnership()": {
        "details": "Leaves the contract without owner. It will not be possible to call `onlyOwner` functions anymore. Can only be called by the current owner. NOTE: Renouncing ownership will leave the contract without an owner, thereby removing any functionality that is only available to the owner."
      },
      "transferOwnership(address)": {
        "details": "Transfers ownership of the contract to a new account (`newOwner`). Can only be called by the current owner."
      }
    },
    "title": "ZombieFactory",
    "version": 1
  },
  "userdoc": {
    "kind": "user",
    "methods": {},
    "version": 1
  }
}